:100000000C9462000C948A000C948A000C948A0070
:100010000C948A000C948A000C948A000C948A0038
:100020000C948A000C948A000C948A000C948A0028
:100030000C948A000C948A000C948A000C948A0018
:100040000C944B030C948A000C94BB030C94950302
:100050000C948A000C948A000C948A000C948A00F8
:100060000C948A000C948A000000000023002600F3
:10007000290000000008000201000003040700003E
:1000800000000000000000000000250028002B00F8
:1000900000000000240027002A00040404040404D3
:1000A0000404020202020202030303030303010227
:1000B00004081020408001020408102001020408F6
:1000C0001020ED0311241FBECFEFD8E0DEBFCDBF5F
:1000D00012E0A0E0B1E0E2ECFDE002C005900D927C
:1000E000AE37B107D9F723E0AEE7B2E001C01D9209
:1000F000A933B207E1F710E0C2E6D0E004C02197CF
:10010000FE010E94CB06C136D107C9F70E943D040B
:100110000C94DF060C94000090E0FC01E255FF4FC8
:100120002491FC01E656FF4F8491882399F090E0DA
:10013000880F991FFC01E057FF4FA591B491FC0176
:10014000EA57FF4F859194918FB7F894EC91E22B89
:10015000EC938FBF0895833081F028F4813099F0BB
:100160008230A1F008958730A9F08830B9F084304A
:10017000D1F4809180008F7D03C0809180008F77C3
:1001800080938000089584B58F7702C084B58F7DF9
:1001900084BD08958091B0008F7703C08091B00036
:1001A0008F7D8093B0000895CF93DF93282F30E0A8
:1001B000F901EE58FF4F8491F901E255FF4FD491B8
:1001C000F901E656FF4FC491CC2391F081110E94B2
:1001D000AB00EC2FF0E0EE0FFF1FE859FF4FA591A9
:1001E000B491EC91ED2381E090E021F480E002C035
:1001F00080E090E0DF91CF9108951F93CF93DF933C
:10020000282F30E0F901EE58FF4F8491F901E255B3
:10021000FF4FD491F901E656FF4FC491CC23C1F0B2
:10022000162F81110E94AB00EC2FF0E0EE0FFF1FA4
:10023000EA57FF4FA591B4919FB7F894111104C0EC
:100240008C91D095D82302C0EC91DE2BDC939FBF1C
:10025000DF91CF911F9108958E3008F08E508770F6
:10026000806480937C0080917A00806480937A001F
:1002700080917A0086FDFCCF8091780020917900F2
:1002800090E0922B08953FB7F89480918602909168
:100290008702A0918802B091890226B5A89B05C06B
:1002A0002F3F19F00196A11DB11D3FBFBA2FA92FF5
:1002B000982F8827820F911DA11DB11DBC01CD0172
:1002C00042E0660F771F881F991F4A95D1F708955E
:1002D0008F929F92AF92BF92CF92DF92EF92FF9256
:1002E0006B017C010E9443014B015C01C114D104EC
:1002F000E104F104F1F00E944301DC01CB01881913
:100300009909AA09BB09883E9340A105B10570F37C
:1003100021E0C21AD108E108F10888EE880E83E0D6
:10032000981EA11CB11CC114D104E104F10419F7F9
:10033000DDCFFF90EF90DF90CF90BF90AF909F9078
:100340008F900895CF92DF92EF92FF920F931F93B9
:10035000CF93DF936C017A018B01C0E0D0E0CE1522
:10036000DF0581F0D8016D918D01D601ED91FC91F1
:100370000190F081E02DC6010995892B11F021969D
:10038000EECF7E01C701DF91CF911F910F91FF90BA
:10039000EF90DF90CF900895089580E090E0089569
:1003A000FC01538D448D252F30E0842F90E0821B7B
:1003B000930B541710F0CF96089501970895FC0100
:1003C000918D828D981761F0828DDF01A80FB11D8C
:1003D0005D968C91928D9F5F9F73928F90E00895B0
:1003E0008FEF9FEF0895FC01918D828D981731F06A
:1003F000828DE80FF11D858D90E008958FEF9FEFBE
:100400000895FC01918D228D892F90E0805C9F4F93
:10041000821B91098F73992708958AE892E00E94C0
:10042000010221E0892B09F420E0822F0895FC01CC
:10043000848DDF01A80FB11DA35ABF4F2C91848D6D
:1004400090E001968F739927848FA689B7892C93A2
:10045000A089B1898C91837080648C93938D848DF5
:10046000981306C00288F389E02D80818F7D8083F8
:100470000895EF92FF920F931F93CF93DF93EC01B8
:1004800081E0888F9B8D8C8D981305C0E889F98950
:10049000808185FD26C0F62E0B8D10E00F5F1F4F6B
:1004A0000F731127E02E8C8DE8120CC00FB607FCDD
:1004B000FACFE889F989808185FFF5CFCE010E94C6
:1004C0001702F1CF8B8DFE01E80FF11DE35AFF4FAC
:1004D000F0829FB7F8940B8FEA89FB898081806254
:1004E0000AC09FB7F894EE89FF896083E889F9898B
:1004F00080818370806480839FBF81E090E0DF9182
:10050000CF911F910F91FF90EF900895CF93DF93BC
:10051000EC01888D8823C9F0EA89FB89808185FDFB
:1005200005C0A889B9898C9186FD0FC00FB607FC5C
:10053000F5CF808185FFF2CFA889B9898C9185FF9D
:10054000EDCFCE010E941702E7CFDF91CF91089542
:1005500080E090E0892B29F00E940D0281110C941B
:1005600000000895009769F0FC0101900020E9F770
:100570003197AF01481B590BBC018AE892E00C94FB
:10058000A20180E090E00895CF93DF930E94B20231
:10059000EC0182E191E00E94B2028C0F9D1FDF917D
:1005A000CF9108950C94B2028F929F92AF92BF9216
:1005B000CF92DF92EF92FF920F931F93CF93DF932F
:1005C000CDB7DEB7A1970FB6F894DEBF0FBECDBF93
:1005D0006C01990FEE08FF08F7FE2BC06DE28AE868
:1005E00092E00E9439028C0122273327A9012C199D
:1005F0003D094E095F0919A2CE0181967C019AE05E
:10060000892E912CA12CB12CCA01B901A50194010C
:100610000E949A06605DF70162937F012115310502
:100620004105510589F7CF010E94B202800F911F49
:100630001DC0A701960119A28E010F5D1F4F8AE010
:10064000C82ED12CE12CF12CCA01B901A7019601C9
:100650000E949A06605DF80162938F0121153105B1
:100660004105510589F7CF010E94B202A1960FB64C
:10067000F894DEBF0FBECDBFDF91CF911F910F91D8
:10068000FF90EF90DF90CF90BF90AF909F908F90B2
:1006900008950E94D1061F920F920FB60F92112457
:1006A0002F933F938F939F93AF93BF938091820239
:1006B00090918302A0918402B091850230918102D1
:1006C00023E0230F2D3720F40196A11DB11D05C095
:1006D00026E8230F0296A11DB11D2093810280936D
:1006E000820290938302A0938402B093850280914A
:1006F000860290918702A0918802B09189020196AA
:10070000A11DB11D8093860290938702A093880259
:10071000B0938902BF91AF919F918F913F912F919B
:100720000F900FBE0F901F9018951F920F920FB64B
:100730000F9211242F933F934F935F936F937F9367
:100740008F939F93AF93BF93EF93FF938AE892E0C9
:100750000E941702FF91EF91BF91AF919F918F91EE
:100760007F916F915F914F913F912F910F900FBEAD
:100770000F901F9018951F920F920FB60F92112491
:100780002F938F939F93EF93FF93E0919A02F091B1
:100790009B028081E091A002F091A10282FD12C033
:1007A00090818091A3028F5F8F732091A4028217A2
:1007B00051F0E091A302F0E0E657FD4F958F809352
:1007C000A30201C08081FF91EF919F918F912F91A2
:1007D0000F900FBE0F901F901895EAE8F2E0138279
:1007E000128288EE93E0A0E0B0E084839583A68334
:1007F000B78384E091E09183808385EC90E09587D6
:10080000848784EC90E09787868780EC90E0918BDA
:10081000808B81EC90E0938B828B82EC90E0958BC7
:10082000848B86EC90E0978B868B118E128E138EC4
:10083000148EE7E2F3E081E3808385E191E0928327
:10084000818384E290E09487838785E090E0908BB9
:10085000878788E290E09483838386E490E09683A0
:1008600085838BE593E09087878388EC91E092877E
:10087000818716861586118A0895CF93DF93CDB7A9
:10088000DEB7DA950FB6F894DEBF0FBECDBF789411
:1008900084B5826084BD84B5816084BD85B5826085
:1008A00085BD85B5816085BD80916E008160809336
:1008B0006E0010928100809181008260809381009F
:1008C00080918100816080938100809180008160AF
:1008D000809380008091B10084608093B10080910A
:1008E000B00081608093B00080917A008460809332
:1008F0007A0080917A00826080937A0080917A00F9
:10090000816080937A0080917A00806880937A0079
:100910001092C100E0919A02F0919B0282E08083E4
:10092000E0919602F09197021082E0919802F09186
:10093000990280E180831092A202E0919E02F091E0
:100940009F0286E08083E0919C02F0919D0280816D
:1009500080618083E0919C02F0919D02808188609B
:100960008083E0919C02F0919D0280818068808369
:10097000E0919C02F0919D0280818F7D808387E2CF
:10098000E82E83E0F82E02E010E08DE191E00E9475
:10099000D202C8010E94D402802F0E948C0082E201
:1009A00091E00E94D20261E0802F0E94FD00F701D9
:1009B00015AA64E670E080E090E00E9468010F5F95
:1009C0001F4FF2E1EF0EF11C04301105F1F68CE03F
:1009D0000E948C0060E08CE00E94FD0085E391E0C5
:1009E0000E94C4022090270380902803909029033E
:1009F00060902A0370902B03A0902C03B0902D03DD
:100A0000C0902E03D0902F0300913003109131033A
:100A1000E090320340903303F09036033090370378
:100A200080913803C050DF4F8883C050D14084E4A8
:100A300091E00E94D20282E591E00E94D2028AE512
:100A400091E00E94D20282E791E00E94D202C401AA
:100A50000E94D2028DE791E00E94D202622D8AE8C4
:100A600092E00E94390285E792E00E94D20282E879
:100A700091E00E94D2028F2D932D0E94D4028CE827
:100A800091E00E94D2028E2D942D0E94D40287E91B
:100A900091E00E94D2028E2D0E942C010E94D4026D
:100AA00088EA91E00E94D202C5010E94D40285EB3F
:100AB00091E00E94D202C3010E94D40282EC91E034
:100AC0000E94D202C6010E94D40280ED91E00E94F1
:100AD000D202C8010E94D40261E070E080E090E0A0
:100AE0000E9468018E2D0E942C011601DD0C440825
:100AF0005508092E000CAA0BBB0B9C01AD01221955
:100B0000330944095509A4E6B0E00E948F06012E7E
:100B1000000C220B330BA901980122193309440957
:100B200055090E94700619012A0189018EED91E094
:100B30000E94D202C1010E94D402261437040CF094
:100B40008FC080917E0281110BC060E08F2D0E94CA
:100B5000FD0088EE91E00E94D202EE24E39401C0F1
:100B6000E12CA016B10644F461E08F2D0E94FD0037
:100B70008FEF91E00E94D2028F2D0E94D40081114C
:100B800003C089E092E002C082E192E00E94D202BA
:100B90008CE00E94D400811103C08BE192E002C07E
:100BA00083E292E00E94C4026AE070E080E090E09C
:100BB0000E946801EE2059F061E08CE00E94FD0087
:100BC00064E670E080E090E00E9468010FC060E0A1
:100BD0008CE00E94FD0008E512E068EE73E080E022
:100BE00090E00E94680101501109B9F78AE892E08B
:100BF0000E9401021816190684F510E001E08AE847
:100C000092E00E9401021816190614F41123F1F162
:100C100084E592E00E94D202CE0101960E94C402B5
:100C200067E772E0CE0101960E94D606892B39F45F
:100C300081E080937E028BE292E00E94C4026FE426
:100C400072E0CE0101960E94D606892B31F41092F3
:100C50007E0280E492E00E94C4020E94A802C2CEFA
:100C6000A214B3048CF0C050DF4FE881C050D140D3
:100C7000E11104C061E08F2D0E94FD0085EF91E03D
:100C80000E94D202E12C78CFE12C6ECF8AE892E06C
:100C90000E94DF01909180029923E1F090917F0200
:100CA000E1E0F0E0EC0FFD1FE90FF11D8E3359F08C
:100CB00080839F5F9F3F19F090937F02A0CFFEEF4C
:100CC000F0937F029CCF10821092800210927F02DC
:100CD00011E095CF8C3309F092CF009380028FCF33
:100CE000052E97FB1EF400940E94870657FD07D03F
:100CF0000E949A0607FC03D04EF40C948706509588
:100D00004095309521953F4F4F4F5F4F08959095F7
:100D10008095709561957F4F8F4F9F4F08950E94EA
:100D2000BC06A59F900DB49F900DA49F800D911DB2
:100D300011240895A1E21A2EAA1BBB1BFD010DC0B0
:100D4000AA1FBB1FEE1FFF1FA217B307E407F5077B
:100D500020F0A21BB30BE40BF50B661F771F881F57
:100D6000991F1A9469F760957095809590959B01ED
:100D7000AC01BD01CF010895A29FB001B39FC00196
:100D8000A39F700D811D1124911DB29F700D811DB7
:100D90001124911D0895EE0FFF1F0590F491E02D91
:100DA000099481E090E0F8940C94DF06FB01DC01EB
:100DB0008D91019080190110D9F3990B0895F89441
:020DC000FFCF63
:100DC200000000003902A201D00186020102DF0107
:100DD200F3010D0A00556E6B6E6F776E0050696EEF
:100DE20020002069732073657420746F204F55545E
:100DF2005055540A0046696E6973686564207365CC
:100E0200747570003C706C616E745F737973746595
:100E12006D002C7468696E673D00646F69745F656C
:100E2200737033325F6465766B69745F76315F30FD
:100E320031002C706C6E745F7479703D002C6964A3
:100E42003D00736572765F70696E3D002C7265615C
:100E5200645F70696E3D002C73656E736F725F72B2
:100E6200656164696E673D002C6D6F695F736574BF
:100E72005F68693D002C6D6F695F7365745F6C6FAD
:100E82003D002C73656E735F6C6F5F76616C3D0025
:100E92002C73656E735F68695F76616C3D002C6DC3
:100EA2006F695F6C766C3D002C646561645F7A6F7C
:100EB2006E653D30002C6465645F7A6E3D31002CB6
:100EC2006465645F7A6E3D30002C736572766F3DA7
:100ED20031002C736572766F3D30002C706D703D61
:100EE200303E002C706D703D313E00546865206DBF
:100EF2006F64756C6520697320414C534545500001
:100F0200546865206D6F64756C6520697320415764
:100F1200414B4500496E20726563696576656420C0
:100F220063686172732077697468207468656D659F
:0E0F320073736167652000534C454550000005
:00000001FF
